{
  "contractName": "FlipBank",
  "abi": [
    {
      "inputs": [],
      "payable": false,
      "stateMutability": "nonpayable",
      "type": "constructor"
    },
    {
      "anonymous": false,
      "inputs": [
        {
          "indexed": false,
          "internalType": "address",
          "name": "account",
          "type": "address"
        },
        {
          "indexed": false,
          "internalType": "uint256",
          "name": "amount",
          "type": "uint256"
        },
        {
          "indexed": false,
          "internalType": "uint256",
          "name": "rate",
          "type": "uint256"
        }
      ],
      "name": "CoinsPurchased",
      "type": "event"
    },
    {
      "anonymous": false,
      "inputs": [
        {
          "indexed": false,
          "internalType": "address",
          "name": "account",
          "type": "address"
        },
        {
          "indexed": false,
          "internalType": "uint256",
          "name": "amount",
          "type": "uint256"
        },
        {
          "indexed": false,
          "internalType": "uint256",
          "name": "rate",
          "type": "uint256"
        }
      ],
      "name": "CoinsSold",
      "type": "event"
    },
    {
      "constant": true,
      "inputs": [],
      "name": "flipcoin",
      "outputs": [
        {
          "internalType": "contract FlipCoin",
          "name": "",
          "type": "address"
        }
      ],
      "payable": false,
      "stateMutability": "view",
      "type": "function"
    },
    {
      "constant": true,
      "inputs": [],
      "name": "name",
      "outputs": [
        {
          "internalType": "string",
          "name": "",
          "type": "string"
        }
      ],
      "payable": false,
      "stateMutability": "view",
      "type": "function"
    },
    {
      "constant": true,
      "inputs": [],
      "name": "owner",
      "outputs": [
        {
          "internalType": "address",
          "name": "",
          "type": "address"
        }
      ],
      "payable": false,
      "stateMutability": "view",
      "type": "function"
    },
    {
      "constant": true,
      "inputs": [],
      "name": "rate",
      "outputs": [
        {
          "internalType": "uint256",
          "name": "",
          "type": "uint256"
        }
      ],
      "payable": false,
      "stateMutability": "view",
      "type": "function"
    },
    {
      "constant": true,
      "inputs": [],
      "name": "sellers",
      "outputs": [
        {
          "internalType": "contract Seller",
          "name": "",
          "type": "address"
        }
      ],
      "payable": false,
      "stateMutability": "view",
      "type": "function"
    },
    {
      "constant": true,
      "inputs": [
        {
          "internalType": "string",
          "name": "",
          "type": "string"
        }
      ],
      "name": "sellersInfo",
      "outputs": [
        {
          "internalType": "address",
          "name": "",
          "type": "address"
        }
      ],
      "payable": false,
      "stateMutability": "view",
      "type": "function"
    },
    {
      "constant": false,
      "inputs": [],
      "name": "mintCoins",
      "outputs": [
        {
          "internalType": "bool",
          "name": "success",
          "type": "bool"
        }
      ],
      "payable": true,
      "stateMutability": "payable",
      "type": "function"
    },
    {
      "constant": false,
      "inputs": [],
      "name": "buyFlipCoins",
      "outputs": [],
      "payable": true,
      "stateMutability": "payable",
      "type": "function"
    },
    {
      "constant": false,
      "inputs": [
        {
          "internalType": "uint256",
          "name": "_amount",
          "type": "uint256"
        }
      ],
      "name": "sellFlipCoins",
      "outputs": [],
      "payable": false,
      "stateMutability": "nonpayable",
      "type": "function"
    },
    {
      "constant": false,
      "inputs": [
        {
          "internalType": "string",
          "name": "brand",
          "type": "string"
        },
        {
          "internalType": "uint256",
          "name": "_offer_rate",
          "type": "uint256"
        },
        {
          "internalType": "uint256",
          "name": "_offer_cap",
          "type": "uint256"
        },
        {
          "internalType": "uint256",
          "name": "_receive_rate",
          "type": "uint256"
        },
        {
          "internalType": "uint256",
          "name": "_receive_cap",
          "type": "uint256"
        }
      ],
      "name": "registerSeller",
      "outputs": [
        {
          "internalType": "bool",
          "name": "success",
          "type": "bool"
        }
      ],
      "payable": false,
      "stateMutability": "nonpayable",
      "type": "function"
    },
    {
      "constant": false,
      "inputs": [
        {
          "internalType": "string",
          "name": "brand",
          "type": "string"
        },
        {
          "internalType": "uint256",
          "name": "_offer_rate",
          "type": "uint256"
        },
        {
          "internalType": "uint256",
          "name": "_offer_cap",
          "type": "uint256"
        },
        {
          "internalType": "uint256",
          "name": "_receive_rate",
          "type": "uint256"
        },
        {
          "internalType": "uint256",
          "name": "_receive_cap",
          "type": "uint256"
        }
      ],
      "name": "updateSeller",
      "outputs": [
        {
          "internalType": "bool",
          "name": "success",
          "type": "bool"
        }
      ],
      "payable": false,
      "stateMutability": "nonpayable",
      "type": "function"
    },
    {
      "constant": true,
      "inputs": [
        {
          "internalType": "string",
          "name": "brand",
          "type": "string"
        }
      ],
      "name": "getSellerInfo",
      "outputs": [
        {
          "internalType": "uint256",
          "name": "_offer_rate",
          "type": "uint256"
        },
        {
          "internalType": "uint256",
          "name": "_offer_cap",
          "type": "uint256"
        },
        {
          "internalType": "uint256",
          "name": "_receive_rate",
          "type": "uint256"
        },
        {
          "internalType": "uint256",
          "name": "_receive_cap",
          "type": "uint256"
        }
      ],
      "payable": false,
      "stateMutability": "view",
      "type": "function"
    },
    {
      "constant": true,
      "inputs": [
        {
          "internalType": "string",
          "name": "key",
          "type": "string"
        }
      ],
      "name": "getValue",
      "outputs": [
        {
          "internalType": "address",
          "name": "a",
          "type": "address"
        }
      ],
      "payable": false,
      "stateMutability": "view",
      "type": "function"
    },
    {
      "constant": false,
      "inputs": [
        {
          "internalType": "uint256",
          "name": "_reward",
          "type": "uint256"
        },
        {
          "internalType": "string",
          "name": "brand",
          "type": "string"
        }
      ],
      "name": "rewardUser",
      "outputs": [
        {
          "internalType": "bool",
          "name": "success",
          "type": "bool"
        }
      ],
      "payable": false,
      "stateMutability": "nonpayable",
      "type": "function"
    },
    {
      "constant": false,
      "inputs": [
        {
          "internalType": "uint256",
          "name": "_amount",
          "type": "uint256"
        },
        {
          "internalType": "string",
          "name": "brand",
          "type": "string"
        }
      ],
      "name": "redeemCoins",
      "outputs": [
        {
          "internalType": "bool",
          "name": "success",
          "type": "bool"
        }
      ],
      "payable": false,
      "stateMutability": "nonpayable",
      "type": "function"
    }
  ],
  "bytecode": "0x60806040526040518060400160405280601181526020017f466c6970436f696e2045786368616e6765000000000000000000000000000000815250600190805190602001906200005192919062000183565b5060646004553480156200006457600080fd5b50336000806101000a81548173ffffffffffffffffffffffffffffffffffffffff021916908373ffffffffffffffffffffffffffffffffffffffff160217905550604051620000b3906200020a565b604051809103906000f080158015620000d0573d6000803e3d6000fd5b50600260006101000a81548173ffffffffffffffffffffffffffffffffffffffff021916908373ffffffffffffffffffffffffffffffffffffffff1602179055506040516200011f9062000218565b604051809103906000f0801580156200013c573d6000803e3d6000fd5b50600360006101000a81548173ffffffffffffffffffffffffffffffffffffffff021916908373ffffffffffffffffffffffffffffffffffffffff1602179055506200024e565b828054600181600116156101000203166002900490600052602060002090601f016020900481019282601f10620001c657805160ff1916838001178555620001f7565b82800160010185558215620001f7579182015b82811115620001f6578251825591602001919060010190620001d9565b5b50905062000206919062000226565b5090565b610e0f8062001fef83390190565b610bed8062002dfe83390190565b6200024b91905b80821115620002475760008160009055506001016200022d565b5090565b90565b611d91806200025e6000396000f3fe6080604052600436106100e85760003560e01c8063798907c11161008a578063d520edb911610059578063d520edb914610839578063dac84a3014610890578063ec3916f114610998578063f2fe6e98146109ef576100e8565b8063798907c1146105c75780638da5cb5b146105e9578063960384a014610640578063c07d8cd414610748576100e8565b806318a0a36e116100c657806318a0a36e146102a25780632c4e722e1461038c578063325cdb8d146103b757806340675d6b146104bf576100e8565b806306fdde03146100ed5780630b4c96fd1461017d57806316d8e91114610267575b600080fd5b3480156100f957600080fd5b506101026109f9565b6040518080602001828103825283818151815260200191508051906020019080838360005b83811015610142578082015181840152602081019050610127565b50505050905090810190601f16801561016f5780820380516001836020036101000a031916815260200191505b509250505060405180910390f35b34801561018957600080fd5b5061024d600480360360408110156101a057600080fd5b8101908080359060200190929190803590602001906401000000008111156101c757600080fd5b8201836020820111156101d957600080fd5b803590602001918460018302840111640100000000831117156101fb57600080fd5b91908080601f016020809104026020016040519081016040528093929190818152602001838380828437600081840152601f19601f820116905080830192505050505050509192919290505050610a97565b604051808215151515815260200191505060405180910390f35b34801561027357600080fd5b506102a06004803603602081101561028a57600080fd5b8101908080359060200190929190505050610d2b565b005b3480156102ae57600080fd5b50610372600480360360408110156102c557600080fd5b8101908080359060200190929190803590602001906401000000008111156102ec57600080fd5b8201836020820111156102fe57600080fd5b8035906020019184600183028401116401000000008311171561032057600080fd5b91908080601f016020809104026020016040519081016040528093929190818152602001838380828437600081840152601f19601f820116905080830192505050505050509192919290505050611007565b604051808215151515815260200191505060405180910390f35b34801561039857600080fd5b506103a1611324565b6040518082815260200191505060405180910390f35b3480156103c357600080fd5b5061047d600480360360208110156103da57600080fd5b81019080803590602001906401000000008111156103f757600080fd5b82018360208201111561040957600080fd5b8035906020019184600183028401116401000000008311171561042b57600080fd5b91908080601f016020809104026020016040519081016040528093929190818152602001838380828437600081840152601f19601f82011690508083019250505050505050919291929050505061132a565b604051808273ffffffffffffffffffffffffffffffffffffffff1673ffffffffffffffffffffffffffffffffffffffff16815260200191505060405180910390f35b3480156104cb57600080fd5b506105ad600480360360a08110156104e257600080fd5b81019080803590602001906401000000008111156104ff57600080fd5b82018360208201111561051157600080fd5b8035906020019184600183028401116401000000008311171561053357600080fd5b91908080601f016020809104026020016040519081016040528093929190818152602001838380828437600081840152601f19601f82011690508083019250505050505050919291929080359060200190929190803590602001909291908035906020019092919080359060200190929190505050611373565b604051808215151515815260200191505060405180910390f35b6105cf6115e8565b604051808215151515815260200191505060405180910390f35b3480156105f557600080fd5b506105fe6116a9565b604051808273ffffffffffffffffffffffffffffffffffffffff1673ffffffffffffffffffffffffffffffffffffffff16815260200191505060405180910390f35b34801561064c57600080fd5b506107066004803603602081101561066357600080fd5b810190808035906020019064010000000081111561068057600080fd5b82018360208201111561069257600080fd5b803590602001918460018302840111640100000000831117156106b457600080fd5b91908080601f016020809104026020016040519081016040528093929190818152602001838380828437600081840152601f19601f8201169050808301925050505050505091929192905050506116ce565b604051808273ffffffffffffffffffffffffffffffffffffffff1673ffffffffffffffffffffffffffffffffffffffff16815260200191505060405180910390f35b34801561075457600080fd5b5061080e6004803603602081101561076b57600080fd5b810190808035906020019064010000000081111561078857600080fd5b82018360208201111561079a57600080fd5b803590602001918460018302840111640100000000831117156107bc57600080fd5b91908080601f016020809104026020016040519081016040528093929190818152602001838380828437600081840152601f19601f820116905080830192505050505050509192919290505050611761565b6040518085815260200184815260200183815260200182815260200194505050505060405180910390f35b34801561084557600080fd5b5061084e6118f7565b604051808273ffffffffffffffffffffffffffffffffffffffff1673ffffffffffffffffffffffffffffffffffffffff16815260200191505060405180910390f35b34801561089c57600080fd5b5061097e600480360360a08110156108b357600080fd5b81019080803590602001906401000000008111156108d057600080fd5b8201836020820111156108e257600080fd5b8035906020019184600183028401116401000000008311171561090457600080fd5b91908080601f016020809104026020016040519081016040528093929190818152602001838380828437600081840152601f19601f8201169050808301925050505050505091929192908035906020019092919080359060200190929190803590602001909291908035906020019092919050505061191d565b604051808215151515815260200191505060405180910390f35b3480156109a457600080fd5b506109ad611aea565b604051808273ffffffffffffffffffffffffffffffffffffffff1673ffffffffffffffffffffffffffffffffffffffff16815260200191505060405180910390f35b6109f7611b10565b005b60018054600181600116156101000203166002900480601f016020809104026020016040519081016040528092919081815260200182805460018160011615610100020316600290048015610a8f5780601f10610a6457610100808354040283529160200191610a8f565b820191906000526020600020905b815481529060010190602001808311610a7257829003601f168201915b505050505081565b600082600260009054906101000a900473ffffffffffffffffffffffffffffffffffffffff1673ffffffffffffffffffffffffffffffffffffffff1663f8b2cb4f336040518263ffffffff1660e01b8152600401808273ffffffffffffffffffffffffffffffffffffffff1673ffffffffffffffffffffffffffffffffffffffff16815260200191505060206040518083038186803b158015610b3957600080fd5b505afa158015610b4d573d6000803e3d6000fd5b505050506040513d6020811015610b6357600080fd5b81019080805190602001909291905050501015610b7f57600080fd5b600260009054906101000a900473ffffffffffffffffffffffffffffffffffffffff1673ffffffffffffffffffffffffffffffffffffffff166323b872dd336005856040518082805190602001908083835b60208310610bf45780518252602082019150602081019050602083039250610bd1565b6001836020036101000a038019825116818451168082178552505050505050905001915050908152602001604051809103902060009054906101000a900473ffffffffffffffffffffffffffffffffffffffff16866040518463ffffffff1660e01b8152600401808473ffffffffffffffffffffffffffffffffffffffff1673ffffffffffffffffffffffffffffffffffffffff1681526020018373ffffffffffffffffffffffffffffffffffffffff1673ffffffffffffffffffffffffffffffffffffffff1681526020018281526020019350505050602060405180830381600087803b158015610ce557600080fd5b505af1158015610cf9573d6000803e3d6000fd5b505050506040513d6020811015610d0f57600080fd5b8101908080519060200190929190505050506001905092915050565b80600260009054906101000a900473ffffffffffffffffffffffffffffffffffffffff1673ffffffffffffffffffffffffffffffffffffffff166370a08231336040518263ffffffff1660e01b8152600401808273ffffffffffffffffffffffffffffffffffffffff1673ffffffffffffffffffffffffffffffffffffffff16815260200191505060206040518083038186803b158015610dcb57600080fd5b505afa158015610ddf573d6000803e3d6000fd5b505050506040513d6020811015610df557600080fd5b81019080805190602001909291905050501015610e1157600080fd5b60006004548281610e1e57fe5b04905080471015610e2e57600080fd5b600260009054906101000a900473ffffffffffffffffffffffffffffffffffffffff1673ffffffffffffffffffffffffffffffffffffffff166323b872dd3330856040518463ffffffff1660e01b8152600401808473ffffffffffffffffffffffffffffffffffffffff1673ffffffffffffffffffffffffffffffffffffffff1681526020018373ffffffffffffffffffffffffffffffffffffffff1673ffffffffffffffffffffffffffffffffffffffff1681526020018281526020019350505050602060405180830381600087803b158015610f0b57600080fd5b505af1158015610f1f573d6000803e3d6000fd5b505050506040513d6020811015610f3557600080fd5b8101908080519060200190929190505050503373ffffffffffffffffffffffffffffffffffffffff166108fc829081150290604051600060405180830381858888f19350505050158015610f8d573d6000803e3d6000fd5b507ff5305275ae77093861dc6cd8f0d24bfc03188ff7b979a7e7732aff48473feaaa3382600454604051808473ffffffffffffffffffffffffffffffffffffffff1673ffffffffffffffffffffffffffffffffffffffff168152602001838152602001828152602001935050505060405180910390a15050565b600082600260009054906101000a900473ffffffffffffffffffffffffffffffffffffffff1673ffffffffffffffffffffffffffffffffffffffff1663f8b2cb4f6005856040518082805190602001908083835b6020831061107e578051825260208201915060208101905060208303925061105b565b6001836020036101000a038019825116818451168082178552505050505050905001915050908152602001604051809103902060009054906101000a900473ffffffffffffffffffffffffffffffffffffffff166040518263ffffffff1660e01b8152600401808273ffffffffffffffffffffffffffffffffffffffff1673ffffffffffffffffffffffffffffffffffffffff16815260200191505060206040518083038186803b15801561113257600080fd5b505afa158015611146573d6000803e3d6000fd5b505050506040513d602081101561115c57600080fd5b8101908080519060200190929190505050101561117857600080fd5b600260009054906101000a900473ffffffffffffffffffffffffffffffffffffffff1673ffffffffffffffffffffffffffffffffffffffff166323b872dd6005846040518082805190602001908083835b602083106111ec57805182526020820191506020810190506020830392506111c9565b6001836020036101000a038019825116818451168082178552505050505050905001915050908152602001604051809103902060009054906101000a900473ffffffffffffffffffffffffffffffffffffffff1633866040518463ffffffff1660e01b8152600401808473ffffffffffffffffffffffffffffffffffffffff1673ffffffffffffffffffffffffffffffffffffffff1681526020018373ffffffffffffffffffffffffffffffffffffffff1673ffffffffffffffffffffffffffffffffffffffff1681526020018281526020019350505050602060405180830381600087803b1580156112de57600080fd5b505af11580156112f2573d6000803e3d6000fd5b505050506040513d602081101561130857600080fd5b8101908080519060200190929190505050506001905092915050565b60045481565b6005818051602081018201805184825260208301602085012081835280955050505050506000915054906101000a900473ffffffffffffffffffffffffffffffffffffffff1681565b60008073ffffffffffffffffffffffffffffffffffffffff166005876040518082805190602001908083835b602083106113c2578051825260208201915060208101905060208303925061139f565b6001836020036101000a038019825116818451168082178552505050505050905001915050908152602001604051809103902060009054906101000a900473ffffffffffffffffffffffffffffffffffffffff1673ffffffffffffffffffffffffffffffffffffffff161461143657600080fd5b336005876040518082805190602001908083835b6020831061146d578051825260208201915060208101905060208303925061144a565b6001836020036101000a038019825116818451168082178552505050505050905001915050908152602001604051809103902060006101000a81548173ffffffffffffffffffffffffffffffffffffffff021916908373ffffffffffffffffffffffffffffffffffffffff160217905550600360009054906101000a900473ffffffffffffffffffffffffffffffffffffffff1673ffffffffffffffffffffffffffffffffffffffff1663a57ce7cf33878787876040518663ffffffff1660e01b8152600401808673ffffffffffffffffffffffffffffffffffffffff1673ffffffffffffffffffffffffffffffffffffffff16815260200185815260200184815260200183815260200182815260200195505050505050602060405180830381600087803b15801561159f57600080fd5b505af11580156115b3573d6000803e3d6000fd5b505050506040513d60208110156115c957600080fd5b8101908080519060200190929190505050506001905095945050505050565b6000600260009054906101000a900473ffffffffffffffffffffffffffffffffffffffff1673ffffffffffffffffffffffffffffffffffffffff1663a77b6efb60646004543402026040518263ffffffff1660e01b815260040180828152602001915050602060405180830381600087803b15801561166657600080fd5b505af115801561167a573d6000803e3d6000fd5b505050506040513d602081101561169057600080fd5b8101908080519060200190929190505050506001905090565b6000809054906101000a900473ffffffffffffffffffffffffffffffffffffffff1681565b60006005826040518082805190602001908083835b6020831061170657805182526020820191506020810190506020830392506116e3565b6001836020036101000a038019825116818451168082178552505050505050905001915050908152602001604051809103902060009054906101000a900473ffffffffffffffffffffffffffffffffffffffff169050919050565b600080600080600360009054906101000a900473ffffffffffffffffffffffffffffffffffffffff1673ffffffffffffffffffffffffffffffffffffffff1663cf317b7e6005876040518082805190602001908083835b602083106117db57805182526020820191506020810190506020830392506117b8565b6001836020036101000a038019825116818451168082178552505050505050905001915050908152602001604051809103902060009054906101000a900473ffffffffffffffffffffffffffffffffffffffff166040518263ffffffff1660e01b8152600401808273ffffffffffffffffffffffffffffffffffffffff1673ffffffffffffffffffffffffffffffffffffffff16815260200191505060806040518083038186803b15801561188f57600080fd5b505afa1580156118a3573d6000803e3d6000fd5b505050506040513d60808110156118b957600080fd5b810190808051906020019092919080519060200190929190805190602001909291908051906020019092919050505093509350935093509193509193565b600360009054906101000a900473ffffffffffffffffffffffffffffffffffffffff1681565b60003373ffffffffffffffffffffffffffffffffffffffff166005876040518082805190602001908083835b6020831061196c5780518252602082019150602081019050602083039250611949565b6001836020036101000a038019825116818451168082178552505050505050905001915050908152602001604051809103902060009054906101000a900473ffffffffffffffffffffffffffffffffffffffff1673ffffffffffffffffffffffffffffffffffffffff16146119e057600080fd5b600360009054906101000a900473ffffffffffffffffffffffffffffffffffffffff1673ffffffffffffffffffffffffffffffffffffffff16632317f1dd33878787876040518663ffffffff1660e01b8152600401808673ffffffffffffffffffffffffffffffffffffffff1673ffffffffffffffffffffffffffffffffffffffff16815260200185815260200184815260200183815260200182815260200195505050505050602060405180830381600087803b158015611aa157600080fd5b505af1158015611ab5573d6000803e3d6000fd5b505050506040513d6020811015611acb57600080fd5b8101908080519060200190929190505050506001905095945050505050565b600260009054906101000a900473ffffffffffffffffffffffffffffffffffffffff1681565b60006004543402905080600260009054906101000a900473ffffffffffffffffffffffffffffffffffffffff1673ffffffffffffffffffffffffffffffffffffffff166370a08231306040518263ffffffff1660e01b8152600401808273ffffffffffffffffffffffffffffffffffffffff1673ffffffffffffffffffffffffffffffffffffffff16815260200191505060206040518083038186803b158015611bb957600080fd5b505afa158015611bcd573d6000803e3d6000fd5b505050506040513d6020811015611be357600080fd5b81019080805190602001909291905050501015611bff57600080fd5b600260009054906101000a900473ffffffffffffffffffffffffffffffffffffffff1673ffffffffffffffffffffffffffffffffffffffff1663a9059cbb33836040518363ffffffff1660e01b8152600401808373ffffffffffffffffffffffffffffffffffffffff1673ffffffffffffffffffffffffffffffffffffffff16815260200182815260200192505050602060405180830381600087803b158015611ca857600080fd5b505af1158015611cbc573d6000803e3d6000fd5b505050506040513d6020811015611cd257600080fd5b8101908080519060200190929190505050507fe42c627940ae035b15bcb45ba29d47ff8b9716b27a4b993b5513d8c0516dc1ed3334600454604051808473ffffffffffffffffffffffffffffffffffffffff1673ffffffffffffffffffffffffffffffffffffffff168152602001838152602001828152602001935050505060405180910390a15056fea265627a7a7231582012fbd1ffbd11e0d7717d2433cfa8850511b7779bd01097f87ca23cc47ba31c8b64736f6c6343000510003260806040526040518060400160405280600881526020017f466c6970436f696e0000000000000000000000000000000000000000000000008152506000908051906020019061004f92919061017e565b506040518060400160405280600881526020017f466c6970436f696e0000000000000000000000000000000000000000000000008152506002908051906020019061009b92919061017e565b506402540be4006003556012600460006101000a81548160ff021916908360ff1602179055503480156100cd57600080fd5b506305f5e10060056000600160009054906101000a900473ffffffffffffffffffffffffffffffffffffffff1673ffffffffffffffffffffffffffffffffffffffff1673ffffffffffffffffffffffffffffffffffffffff1681526020019081526020016000208190555033600160006101000a81548173ffffffffffffffffffffffffffffffffffffffff021916908373ffffffffffffffffffffffffffffffffffffffff160217905550610223565b828054600181600116156101000203166002900490600052602060002090601f016020900481019282601f106101bf57805160ff19168380011785556101ed565b828001600101855582156101ed579182015b828111156101ec5782518255916020019190600101906101d1565b5b5090506101fa91906101fe565b5090565b61022091905b8082111561021c576000816000905550600101610204565b5090565b90565b610bdd806102326000396000f3fe608060405234801561001057600080fd5b50600436106100a95760003560e01c806370a082311161007157806370a082311461025f57806395d89b41146102b7578063a77b6efb1461033a578063a9059cbb14610380578063dd62ed3e146103e6578063f8b2cb4f1461045e576100a9565b806306fdde03146100ae578063095ea7b31461013157806318160ddd1461019757806323b872dd146101b5578063313ce5671461023b575b600080fd5b6100b66104b6565b6040518080602001828103825283818151815260200191508051906020019080838360005b838110156100f65780820151818401526020810190506100db565b50505050905090810190601f1680156101235780820380516001836020036101000a031916815260200191505b509250505060405180910390f35b61017d6004803603604081101561014757600080fd5b81019080803573ffffffffffffffffffffffffffffffffffffffff16906020019092919080359060200190929190505050610554565b604051808215151515815260200191505060405180910390f35b61019f610646565b6040518082815260200191505060405180910390f35b610221600480360360608110156101cb57600080fd5b81019080803573ffffffffffffffffffffffffffffffffffffffff169060200190929190803573ffffffffffffffffffffffffffffffffffffffff1690602001909291908035906020019092919050505061064c565b604051808215151515815260200191505060405180910390f35b6102436107a4565b604051808260ff1660ff16815260200191505060405180910390f35b6102a16004803603602081101561027557600080fd5b81019080803573ffffffffffffffffffffffffffffffffffffffff1690602001909291905050506107b7565b6040518082815260200191505060405180910390f35b6102bf6107cf565b6040518080602001828103825283818151815260200191508051906020019080838360005b838110156102ff5780820151818401526020810190506102e4565b50505050905090810190601f16801561032c5780820380516001836020036101000a031916815260200191505b509250505060405180910390f35b6103666004803603602081101561035057600080fd5b810190808035906020019092919050505061086d565b604051808215151515815260200191505060405180910390f35b6103cc6004803603604081101561039657600080fd5b81019080803573ffffffffffffffffffffffffffffffffffffffff169060200190929190803590602001909291905050506109e3565b604051808215151515815260200191505060405180910390f35b610448600480360360408110156103fc57600080fd5b81019080803573ffffffffffffffffffffffffffffffffffffffff169060200190929190803573ffffffffffffffffffffffffffffffffffffffff169060200190929190505050610b3a565b6040518082815260200191505060405180910390f35b6104a06004803603602081101561047457600080fd5b81019080803573ffffffffffffffffffffffffffffffffffffffff169060200190929190505050610b5f565b6040518082815260200191505060405180910390f35b60008054600181600116156101000203166002900480601f01602080910402602001604051908101604052809291908181526020018280546001816001161561010002031660029004801561054c5780601f106105215761010080835404028352916020019161054c565b820191906000526020600020905b81548152906001019060200180831161052f57829003601f168201915b505050505081565b600081600660003373ffffffffffffffffffffffffffffffffffffffff1673ffffffffffffffffffffffffffffffffffffffff16815260200190815260200160002060008573ffffffffffffffffffffffffffffffffffffffff1673ffffffffffffffffffffffffffffffffffffffff168152602001908152602001600020819055508273ffffffffffffffffffffffffffffffffffffffff163373ffffffffffffffffffffffffffffffffffffffff167f8c5be1e5ebec7d5bd14f71427d1e84f3dd0314c0f7b2291e5b200ac8c7c3b925846040518082815260200191505060405180910390a36001905092915050565b60035481565b6000600560008573ffffffffffffffffffffffffffffffffffffffff1673ffffffffffffffffffffffffffffffffffffffff1681526020019081526020016000205482111561069a57600080fd5b81600560008673ffffffffffffffffffffffffffffffffffffffff1673ffffffffffffffffffffffffffffffffffffffff1681526020019081526020016000206000828254039250508190555081600560008573ffffffffffffffffffffffffffffffffffffffff1673ffffffffffffffffffffffffffffffffffffffff168152602001908152602001600020600082825401925050819055508273ffffffffffffffffffffffffffffffffffffffff168473ffffffffffffffffffffffffffffffffffffffff167fddf252ad1be2c89b69c2b068fc378daa952ba7f163c4a11628f55a4df523b3ef846040518082815260200191505060405180910390a3600190509392505050565b600460009054906101000a900460ff1681565b60056020528060005260406000206000915090505481565b60028054600181600116156101000203166002900480601f0160208091040260200160405190810160405280929190818152602001828054600181600116156101000203166002900480156108655780601f1061083a57610100808354040283529160200191610865565b820191906000526020600020905b81548152906001019060200180831161084857829003601f168201915b505050505081565b6000600160009054906101000a900473ffffffffffffffffffffffffffffffffffffffff168073ffffffffffffffffffffffffffffffffffffffff163373ffffffffffffffffffffffffffffffffffffffff1614610933576040517f08c379a00000000000000000000000000000000000000000000000000000000081526004018080602001828103825260168152602001807f53656e646572206e6f7420617574686f72697a65642e0000000000000000000081525060200191505060405180910390fd5b8260056000600160009054906101000a900473ffffffffffffffffffffffffffffffffffffffff1673ffffffffffffffffffffffffffffffffffffffff1673ffffffffffffffffffffffffffffffffffffffff168152602001908152602001600020600082825401925050819055507f652ca75881aecc21a17f6599ddea8106b8cc350490ae7dc196e9d6bb9ca6bbf5836040518082815260200191505060405180910390a16001915050919050565b600081600560003373ffffffffffffffffffffffffffffffffffffffff1673ffffffffffffffffffffffffffffffffffffffff168152602001908152602001600020541015610a3157600080fd5b81600560003373ffffffffffffffffffffffffffffffffffffffff1673ffffffffffffffffffffffffffffffffffffffff1681526020019081526020016000206000828254039250508190555081600560008573ffffffffffffffffffffffffffffffffffffffff1673ffffffffffffffffffffffffffffffffffffffff168152602001908152602001600020600082825401925050819055508273ffffffffffffffffffffffffffffffffffffffff163373ffffffffffffffffffffffffffffffffffffffff167fddf252ad1be2c89b69c2b068fc378daa952ba7f163c4a11628f55a4df523b3ef846040518082815260200191505060405180910390a36001905092915050565b6006602052816000526040600020602052806000526040600020600091509150505481565b6000600560008373ffffffffffffffffffffffffffffffffffffffff1673ffffffffffffffffffffffffffffffffffffffff16815260200190815260200160002054905091905056fea265627a7a7231582085bdad908a3f91368cf901c518c7a4ba19d8bb28138ce741054be2d3a6acdb2e64736f6c6343000510003260806040526040518060400160405280600681526020017f53656c6c657200000000000000000000000000000000000000000000000000008152506000908051906020019061004f9291906100ae565b506040518060400160405280600b81526020017f53656c6c6572734c6973740000000000000000000000000000000000000000008152506001908051906020019061009b9291906100ae565b503480156100a857600080fd5b50610153565b828054600181600116156101000203166002900490600052602060002090601f016020900481019282601f106100ef57805160ff191683800117855561011d565b8280016001018555821561011d579182015b8281111561011c578251825591602001919060010190610101565b5b50905061012a919061012e565b5090565b61015091905b8082111561014c576000816000905550600101610134565b5090565b90565b610a8b806101626000396000f3fe608060405234801561001057600080fd5b506004361061007d5760003560e01c806395d89b411161005b57806395d89b41146101f6578063a57ce7cf14610279578063c3c5a547146102fd578063cf317b7e146103595761007d565b806306fdde031461008257806316415a02146101055780632317f1dd14610172575b600080fd5b61008a6103c6565b6040518080602001828103825283818151815260200191508051906020019080838360005b838110156100ca5780820151818401526020810190506100af565b50505050905090810190601f1680156100f75780820380516001836020036101000a031916815260200191505b509250505060405180910390f35b6101476004803603602081101561011b57600080fd5b81019080803573ffffffffffffffffffffffffffffffffffffffff169060200190929190505050610464565b6040518085815260200184815260200183815260200182815260200194505050505060405180910390f35b6101dc600480360360a081101561018857600080fd5b81019080803573ffffffffffffffffffffffffffffffffffffffff16906020019092919080359060200190929190803590602001909291908035906020019092919080359060200190929190505050610494565b604051808215151515815260200191505060405180910390f35b6101fe6106a5565b6040518080602001828103825283818151815260200191508051906020019080838360005b8381101561023e578082015181840152602081019050610223565b50505050905090810190601f16801561026b5780820380516001836020036101000a031916815260200191505b509250505060405180910390f35b6102e3600480360360a081101561028f57600080fd5b81019080803573ffffffffffffffffffffffffffffffffffffffff16906020019092919080359060200190929190803590602001909291908035906020019092919080359060200190929190505050610743565b604051808215151515815260200191505060405180910390f35b61033f6004803603602081101561031357600080fd5b81019080803573ffffffffffffffffffffffffffffffffffffffff1690602001909291905050506108b8565b604051808215151515815260200191505060405180910390f35b61039b6004803603602081101561036f57600080fd5b81019080803573ffffffffffffffffffffffffffffffffffffffff1690602001909291905050506108d8565b6040518085815260200184815260200183815260200182815260200194505050505060405180910390f35b60008054600181600116156101000203166002900480601f01602080910402602001604051908101604052809291908181526020018280546001816001161561010002031660029004801561045c5780601f106104315761010080835404028352916020019161045c565b820191906000526020600020905b81548152906001019060200180831161043f57829003601f168201915b505050505081565b60026020528060005260406000206000915090508060000154908060010154908060020154908060030154905084565b600060011515600360008873ffffffffffffffffffffffffffffffffffffffff1673ffffffffffffffffffffffffffffffffffffffff16815260200190815260200160002060009054906101000a900460ff16151514156106975784600260008873ffffffffffffffffffffffffffffffffffffffff1673ffffffffffffffffffffffffffffffffffffffff1681526020019081526020016000206000018190555082600260008873ffffffffffffffffffffffffffffffffffffffff1673ffffffffffffffffffffffffffffffffffffffff1681526020019081526020016000206002018190555081600260008873ffffffffffffffffffffffffffffffffffffffff1673ffffffffffffffffffffffffffffffffffffffff1681526020019081526020016000206003018190555083600260008873ffffffffffffffffffffffffffffffffffffffff1673ffffffffffffffffffffffffffffffffffffffff168152602001908152602001600020600101819055507fe6ce7264f267f0a667a771e0ef2cfe72f277f7493e9779196a521f4d1fe21a958686868686604051808673ffffffffffffffffffffffffffffffffffffffff1673ffffffffffffffffffffffffffffffffffffffff1681526020018581526020018481526020018381526020018281526020019550505050505060405180910390a16001905061069c565b600090505b95945050505050565b60018054600181600116156101000203166002900480601f01602080910402602001604051908101604052809291908181526020018280546001816001161561010002031660029004801561073b5780601f106107105761010080835404028352916020019161073b565b820191906000526020600020905b81548152906001019060200180831161071e57829003601f168201915b505050505081565b6000604051806080016040528086815260200185815260200184815260200183815250600260008873ffffffffffffffffffffffffffffffffffffffff1673ffffffffffffffffffffffffffffffffffffffff168152602001908152602001600020600082015181600001556020820151816001015560408201518160020155606082015181600301559050506001600360008873ffffffffffffffffffffffffffffffffffffffff1673ffffffffffffffffffffffffffffffffffffffff16815260200190815260200160002060006101000a81548160ff0219169083151502179055507f632b32112d65ab07747b8108061d2b9605a7d5879d080741e0aebab26ee68ac18686868686604051808673ffffffffffffffffffffffffffffffffffffffff1673ffffffffffffffffffffffffffffffffffffffff1681526020018581526020018481526020018381526020018281526020019550505050505060405180910390a16001905095945050505050565b60036020528060005260406000206000915054906101000a900460ff1681565b60008060008060011515600360008773ffffffffffffffffffffffffffffffffffffffff1673ffffffffffffffffffffffffffffffffffffffff16815260200190815260200160002060009054906101000a900460ff1615151461093b57600080fd5b600260008673ffffffffffffffffffffffffffffffffffffffff1673ffffffffffffffffffffffffffffffffffffffff16815260200190815260200160002060000154600260008773ffffffffffffffffffffffffffffffffffffffff1673ffffffffffffffffffffffffffffffffffffffff16815260200190815260200160002060010154600260008873ffffffffffffffffffffffffffffffffffffffff1673ffffffffffffffffffffffffffffffffffffffff16815260200190815260200160002060020154600260008973ffffffffffffffffffffffffffffffffffffffff1673ffffffffffffffffffffffffffffffffffffffff168152602001908152602001600020600301549350935093509350919350919356fea265627a7a723158208ebfd576ff8ad619a31846b19e48ebfc239af1378fa2f2bdf0d0552c2719fc5d64736f6c63430005100032",
  "source": "pragma solidity ^0.5.0;\r\n\r\nimport \"./FlipCoin.sol\";\r\nimport \"./Seller.sol\";\r\n\r\ncontract FlipBank {\r\n  address public owner; \r\n  string public name = \"FlipCoin Exchange\";\r\n  FlipCoin public flipcoin;\r\n  Seller public sellers;\r\n  uint public rate = 100;\r\n  mapping(string => address) public sellersInfo;\r\n\r\n  event CoinsPurchased(\r\n    address account,\r\n    uint amount,\r\n    uint rate\r\n  );\r\n\r\n  event CoinsSold(\r\n    address account,\r\n    uint amount,\r\n    uint rate\r\n  );\r\n\r\n  constructor() public {\r\n    owner = msg.sender;\r\n    flipcoin = new FlipCoin();\r\n    sellers = new Seller();\r\n  }\r\n\r\n  function mintCoins() public payable returns (bool success){\r\n    flipcoin.mintCoins(msg.value * rate * 100);\r\n    return true;\r\n  }\r\n\r\n  function buyFlipCoins() public payable {\r\n    uint flipcoinAmount = msg.value * rate;\r\n    require(flipcoin.balanceOf(address(this)) >= flipcoinAmount);\r\n\r\n    flipcoin.transfer(msg.sender, flipcoinAmount);\r\n    emit CoinsPurchased(msg.sender, msg.value, rate);\r\n  }\r\n\r\n  function sellFlipCoins(uint _amount) public {\r\n    require(flipcoin.balanceOf(msg.sender) >= _amount);\r\n\r\n    uint etherAmount = _amount / rate;\r\n\r\n    require(address(this).balance >= etherAmount);\r\n\r\n    flipcoin.transferFrom(msg.sender, address(this), _amount);\r\n    msg.sender.transfer(etherAmount);\r\n    emit CoinsSold(msg.sender, etherAmount, rate);\r\n  }\r\n\r\n  function registerSeller(string memory brand, uint _offer_rate, uint _offer_cap, uint _receive_rate, uint _receive_cap) public returns (bool success) {\r\n    require(sellersInfo[brand] == address(0));\r\n    sellersInfo[brand] = msg.sender;\r\n    sellers.listSeller(msg.sender, _offer_rate, _offer_cap, _receive_rate, _receive_cap);\r\n    return true;\r\n  }\r\n\r\n  function updateSeller(string memory brand, uint _offer_rate, uint _offer_cap, uint _receive_rate, uint _receive_cap) public returns (bool success) {\r\n    require(sellersInfo[brand] == msg.sender);\r\n    sellers.editSeller(msg.sender, _offer_rate,_offer_cap, _receive_rate, _receive_cap);\r\n    return true;\r\n  }\r\n\r\n  function getSellerInfo(string memory brand) public view returns (uint _offer_rate, uint _offer_cap, uint _receive_rate, uint _receive_cap){\r\n    return sellers.getSellerInfo(sellersInfo[brand]);\r\n  }\r\n\r\n  function getValue(string memory key) public view returns (address a) {\r\n    return sellersInfo[key];\r\n  }\r\n\r\n  function rewardUser(uint _reward, string memory brand) public returns (bool success) {\r\n    require(flipcoin.getBalance(sellersInfo[brand]) >= _reward);\r\n    flipcoin.transferFrom(sellersInfo[brand], msg.sender, _reward);\r\n    return true;\r\n  }\r\n\r\n  function redeemCoins(uint _amount, string memory brand) public returns (bool success) {\r\n    require(flipcoin.getBalance(msg.sender) >= _amount);\r\n    flipcoin.transferFrom(msg.sender, sellersInfo[brand], _amount);\r\n    return true;\r\n  }\r\n}",
  "sourcePath": "C:\\Users\\rkr21\\OneDrive\\Desktop\\Grid\\FlipCoin\\client\\src\\contracts\\FlipBank.sol",
  "compiler": {
    "name": "solc",
    "version": "0.5.16+commit.9c3226ce.Emscripten.clang"
  },
  "schemaVersion": "3.4.15",
  "updatedAt": "2023-08-19T20:49:04.813Z",
  "devdoc": {
    "methods": {}
  },
  "userdoc": {
    "methods": {}
  }
}