{
  "contractName": "Seller",
  "abi": [
    {
      "inputs": [],
      "payable": false,
      "stateMutability": "nonpayable",
      "type": "constructor"
    },
    {
      "anonymous": false,
      "inputs": [
        {
          "indexed": false,
          "internalType": "address",
          "name": "_sellerAddress",
          "type": "address"
        },
        {
          "indexed": false,
          "internalType": "uint256",
          "name": "_offer_rate",
          "type": "uint256"
        },
        {
          "indexed": false,
          "internalType": "uint256",
          "name": "_offer_cap",
          "type": "uint256"
        },
        {
          "indexed": false,
          "internalType": "uint256",
          "name": "_receive_rate",
          "type": "uint256"
        },
        {
          "indexed": false,
          "internalType": "uint256",
          "name": "_receive_cap",
          "type": "uint256"
        }
      ],
      "name": "SellerRegistered",
      "type": "event"
    },
    {
      "anonymous": false,
      "inputs": [
        {
          "indexed": false,
          "internalType": "address",
          "name": "_sellerAddress",
          "type": "address"
        },
        {
          "indexed": false,
          "internalType": "uint256",
          "name": "_offer_rate",
          "type": "uint256"
        },
        {
          "indexed": false,
          "internalType": "uint256",
          "name": "_offer_cap",
          "type": "uint256"
        },
        {
          "indexed": false,
          "internalType": "uint256",
          "name": "_receive_rate",
          "type": "uint256"
        },
        {
          "indexed": false,
          "internalType": "uint256",
          "name": "_receive_cap",
          "type": "uint256"
        }
      ],
      "name": "SellerUpdated",
      "type": "event"
    },
    {
      "constant": true,
      "inputs": [
        {
          "internalType": "address",
          "name": "",
          "type": "address"
        }
      ],
      "name": "isRegistered",
      "outputs": [
        {
          "internalType": "bool",
          "name": "",
          "type": "bool"
        }
      ],
      "payable": false,
      "stateMutability": "view",
      "type": "function"
    },
    {
      "constant": true,
      "inputs": [],
      "name": "name",
      "outputs": [
        {
          "internalType": "string",
          "name": "",
          "type": "string"
        }
      ],
      "payable": false,
      "stateMutability": "view",
      "type": "function"
    },
    {
      "constant": true,
      "inputs": [
        {
          "internalType": "address",
          "name": "",
          "type": "address"
        }
      ],
      "name": "sellersList",
      "outputs": [
        {
          "internalType": "uint256",
          "name": "offer_rate",
          "type": "uint256"
        },
        {
          "internalType": "uint256",
          "name": "offer_cap",
          "type": "uint256"
        },
        {
          "internalType": "uint256",
          "name": "receive_rate",
          "type": "uint256"
        },
        {
          "internalType": "uint256",
          "name": "receive_cap",
          "type": "uint256"
        }
      ],
      "payable": false,
      "stateMutability": "view",
      "type": "function"
    },
    {
      "constant": true,
      "inputs": [],
      "name": "symbol",
      "outputs": [
        {
          "internalType": "string",
          "name": "",
          "type": "string"
        }
      ],
      "payable": false,
      "stateMutability": "view",
      "type": "function"
    },
    {
      "constant": false,
      "inputs": [
        {
          "internalType": "address",
          "name": "_brand",
          "type": "address"
        },
        {
          "internalType": "uint256",
          "name": "_offer_rate",
          "type": "uint256"
        },
        {
          "internalType": "uint256",
          "name": "_offer_cap",
          "type": "uint256"
        },
        {
          "internalType": "uint256",
          "name": "_receive_rate",
          "type": "uint256"
        },
        {
          "internalType": "uint256",
          "name": "_receive_cap",
          "type": "uint256"
        }
      ],
      "name": "listSeller",
      "outputs": [
        {
          "internalType": "bool",
          "name": "success",
          "type": "bool"
        }
      ],
      "payable": false,
      "stateMutability": "nonpayable",
      "type": "function"
    },
    {
      "constant": false,
      "inputs": [
        {
          "internalType": "address",
          "name": "_brand",
          "type": "address"
        },
        {
          "internalType": "uint256",
          "name": "_offer_rate",
          "type": "uint256"
        },
        {
          "internalType": "uint256",
          "name": "_offer_cap",
          "type": "uint256"
        },
        {
          "internalType": "uint256",
          "name": "_receive_rate",
          "type": "uint256"
        },
        {
          "internalType": "uint256",
          "name": "_receive_cap",
          "type": "uint256"
        }
      ],
      "name": "editSeller",
      "outputs": [
        {
          "internalType": "bool",
          "name": "success",
          "type": "bool"
        }
      ],
      "payable": false,
      "stateMutability": "nonpayable",
      "type": "function"
    },
    {
      "constant": true,
      "inputs": [
        {
          "internalType": "address",
          "name": "_brand",
          "type": "address"
        }
      ],
      "name": "getSellerInfo",
      "outputs": [
        {
          "internalType": "uint256",
          "name": "_offer_rate",
          "type": "uint256"
        },
        {
          "internalType": "uint256",
          "name": "_offer_cap",
          "type": "uint256"
        },
        {
          "internalType": "uint256",
          "name": "_receive_rate",
          "type": "uint256"
        },
        {
          "internalType": "uint256",
          "name": "_receive_cap",
          "type": "uint256"
        }
      ],
      "payable": false,
      "stateMutability": "view",
      "type": "function"
    }
  ],
  "bytecode": "0x60806040526040518060400160405280600681526020017f53656c6c657200000000000000000000000000000000000000000000000000008152506000908051906020019061004f9291906100ae565b506040518060400160405280600b81526020017f53656c6c6572734c6973740000000000000000000000000000000000000000008152506001908051906020019061009b9291906100ae565b503480156100a857600080fd5b50610153565b828054600181600116156101000203166002900490600052602060002090601f016020900481019282601f106100ef57805160ff191683800117855561011d565b8280016001018555821561011d579182015b8281111561011c578251825591602001919060010190610101565b5b50905061012a919061012e565b5090565b61015091905b8082111561014c576000816000905550600101610134565b5090565b90565b610a8b806101626000396000f3fe608060405234801561001057600080fd5b506004361061007d5760003560e01c806395d89b411161005b57806395d89b41146101f6578063a57ce7cf14610279578063c3c5a547146102fd578063cf317b7e146103595761007d565b806306fdde031461008257806316415a02146101055780632317f1dd14610172575b600080fd5b61008a6103c6565b6040518080602001828103825283818151815260200191508051906020019080838360005b838110156100ca5780820151818401526020810190506100af565b50505050905090810190601f1680156100f75780820380516001836020036101000a031916815260200191505b509250505060405180910390f35b6101476004803603602081101561011b57600080fd5b81019080803573ffffffffffffffffffffffffffffffffffffffff169060200190929190505050610464565b6040518085815260200184815260200183815260200182815260200194505050505060405180910390f35b6101dc600480360360a081101561018857600080fd5b81019080803573ffffffffffffffffffffffffffffffffffffffff16906020019092919080359060200190929190803590602001909291908035906020019092919080359060200190929190505050610494565b604051808215151515815260200191505060405180910390f35b6101fe6106a5565b6040518080602001828103825283818151815260200191508051906020019080838360005b8381101561023e578082015181840152602081019050610223565b50505050905090810190601f16801561026b5780820380516001836020036101000a031916815260200191505b509250505060405180910390f35b6102e3600480360360a081101561028f57600080fd5b81019080803573ffffffffffffffffffffffffffffffffffffffff16906020019092919080359060200190929190803590602001909291908035906020019092919080359060200190929190505050610743565b604051808215151515815260200191505060405180910390f35b61033f6004803603602081101561031357600080fd5b81019080803573ffffffffffffffffffffffffffffffffffffffff1690602001909291905050506108b8565b604051808215151515815260200191505060405180910390f35b61039b6004803603602081101561036f57600080fd5b81019080803573ffffffffffffffffffffffffffffffffffffffff1690602001909291905050506108d8565b6040518085815260200184815260200183815260200182815260200194505050505060405180910390f35b60008054600181600116156101000203166002900480601f01602080910402602001604051908101604052809291908181526020018280546001816001161561010002031660029004801561045c5780601f106104315761010080835404028352916020019161045c565b820191906000526020600020905b81548152906001019060200180831161043f57829003601f168201915b505050505081565b60026020528060005260406000206000915090508060000154908060010154908060020154908060030154905084565b600060011515600360008873ffffffffffffffffffffffffffffffffffffffff1673ffffffffffffffffffffffffffffffffffffffff16815260200190815260200160002060009054906101000a900460ff16151514156106975784600260008873ffffffffffffffffffffffffffffffffffffffff1673ffffffffffffffffffffffffffffffffffffffff1681526020019081526020016000206000018190555082600260008873ffffffffffffffffffffffffffffffffffffffff1673ffffffffffffffffffffffffffffffffffffffff1681526020019081526020016000206002018190555081600260008873ffffffffffffffffffffffffffffffffffffffff1673ffffffffffffffffffffffffffffffffffffffff1681526020019081526020016000206003018190555083600260008873ffffffffffffffffffffffffffffffffffffffff1673ffffffffffffffffffffffffffffffffffffffff168152602001908152602001600020600101819055507fe6ce7264f267f0a667a771e0ef2cfe72f277f7493e9779196a521f4d1fe21a958686868686604051808673ffffffffffffffffffffffffffffffffffffffff1673ffffffffffffffffffffffffffffffffffffffff1681526020018581526020018481526020018381526020018281526020019550505050505060405180910390a16001905061069c565b600090505b95945050505050565b60018054600181600116156101000203166002900480601f01602080910402602001604051908101604052809291908181526020018280546001816001161561010002031660029004801561073b5780601f106107105761010080835404028352916020019161073b565b820191906000526020600020905b81548152906001019060200180831161071e57829003601f168201915b505050505081565b6000604051806080016040528086815260200185815260200184815260200183815250600260008873ffffffffffffffffffffffffffffffffffffffff1673ffffffffffffffffffffffffffffffffffffffff168152602001908152602001600020600082015181600001556020820151816001015560408201518160020155606082015181600301559050506001600360008873ffffffffffffffffffffffffffffffffffffffff1673ffffffffffffffffffffffffffffffffffffffff16815260200190815260200160002060006101000a81548160ff0219169083151502179055507f632b32112d65ab07747b8108061d2b9605a7d5879d080741e0aebab26ee68ac18686868686604051808673ffffffffffffffffffffffffffffffffffffffff1673ffffffffffffffffffffffffffffffffffffffff1681526020018581526020018481526020018381526020018281526020019550505050505060405180910390a16001905095945050505050565b60036020528060005260406000206000915054906101000a900460ff1681565b60008060008060011515600360008773ffffffffffffffffffffffffffffffffffffffff1673ffffffffffffffffffffffffffffffffffffffff16815260200190815260200160002060009054906101000a900460ff1615151461093b57600080fd5b600260008673ffffffffffffffffffffffffffffffffffffffff1673ffffffffffffffffffffffffffffffffffffffff16815260200190815260200160002060000154600260008773ffffffffffffffffffffffffffffffffffffffff1673ffffffffffffffffffffffffffffffffffffffff16815260200190815260200160002060010154600260008873ffffffffffffffffffffffffffffffffffffffff1673ffffffffffffffffffffffffffffffffffffffff16815260200190815260200160002060020154600260008973ffffffffffffffffffffffffffffffffffffffff1673ffffffffffffffffffffffffffffffffffffffff168152602001908152602001600020600301549350935093509350919350919356fea265627a7a723158208ebfd576ff8ad619a31846b19e48ebfc239af1378fa2f2bdf0d0552c2719fc5d64736f6c63430005100032",
  "source": "pragma solidity ^0.5.0;\r\n\r\ncontract Seller {\r\n    string  public name = \"Seller\";\r\n    string  public symbol = \"SellersList\";\r\n\r\n    struct SellerInfo{\r\n        uint offer_rate;\r\n        uint offer_cap;\r\n        uint receive_rate;\r\n        uint receive_cap;\r\n    }\r\n\r\n    mapping(address => SellerInfo) public sellersList;\r\n    mapping(address => bool) public isRegistered;\r\n\r\n    event SellerRegistered(\r\n        address _sellerAddress,\r\n        uint _offer_rate,\r\n        uint _offer_cap,\r\n        uint _receive_rate,\r\n        uint _receive_cap\r\n    );\r\n\r\n    event SellerUpdated(\r\n        address _sellerAddress,\r\n        uint _offer_rate,\r\n        uint _offer_cap,\r\n        uint _receive_rate,\r\n        uint _receive_cap\r\n    );\r\n\r\n    constructor() public {\r\n    }\r\n\r\n    function listSeller(address _brand, uint _offer_rate,uint _offer_cap, uint _receive_rate, uint _receive_cap) public returns (bool success) {\r\n        sellersList[_brand] = SellerInfo(_offer_rate,_offer_cap, _receive_rate, _receive_cap);\r\n        isRegistered[_brand] = true;\r\n        emit SellerRegistered(_brand, _offer_rate,_offer_cap, _receive_rate, _receive_cap);\r\n        return true;\r\n    }\r\n\r\n    function editSeller(address _brand, uint _offer_rate, uint _offer_cap, uint _receive_rate, uint _receive_cap) public returns (bool success) {\r\n        if(isRegistered[_brand] == true){\r\n            sellersList[_brand].offer_rate = _offer_rate;\r\n            sellersList[_brand].receive_rate = _receive_rate;\r\n            sellersList[_brand].receive_cap = _receive_cap;\r\n            sellersList[_brand].offer_cap = _offer_cap;\r\n            emit SellerUpdated(_brand, _offer_rate, _offer_cap, _receive_rate, _receive_cap);\r\n            return true;\r\n        }\r\n        return false;\r\n    }\r\n\r\n    function getSellerInfo(address _brand) public view returns (uint _offer_rate,uint _offer_cap, uint _receive_rate, uint _receive_cap) {\r\n        require(isRegistered[_brand] == true);\r\n        return (sellersList[_brand].offer_rate, sellersList[_brand].offer_cap, sellersList[_brand].receive_rate, sellersList[_brand].receive_cap);\r\n    }\r\n}",
  "sourcePath": "C:\\Users\\rkr21\\OneDrive\\Desktop\\Grid\\FlipCoin\\client\\src\\contracts\\Seller.sol",
  "compiler": {
    "name": "solc",
    "version": "0.5.16+commit.9c3226ce.Emscripten.clang"
  },
  "schemaVersion": "3.4.15",
  "updatedAt": "2023-08-19T20:49:04.840Z",
  "devdoc": {
    "methods": {}
  },
  "userdoc": {
    "methods": {}
  }
}